{
  "contractName": "Creator",
  "abi": [
    {
      "anonymous": false,
      "inputs": [],
      "name": "NewCreator",
      "type": "event"
    },
    {
      "constant": true,
      "inputs": [
        {
          "internalType": "uint256",
          "name": "",
          "type": "uint256"
        }
      ],
      "name": "allCreators",
      "outputs": [
        {
          "internalType": "address",
          "name": "",
          "type": "address"
        }
      ],
      "payable": false,
      "stateMutability": "view",
      "type": "function"
    },
    {
      "constant": true,
      "inputs": [],
      "name": "numCreators",
      "outputs": [
        {
          "internalType": "uint256",
          "name": "",
          "type": "uint256"
        }
      ],
      "payable": false,
      "stateMutability": "view",
      "type": "function"
    },
    {
      "constant": true,
      "inputs": [],
      "name": "isOldCreator",
      "outputs": [
        {
          "internalType": "bool",
          "name": "",
          "type": "bool"
        }
      ],
      "payable": false,
      "stateMutability": "view",
      "type": "function"
    },
    {
      "constant": false,
      "inputs": [],
      "name": "newCreatorSignup",
      "outputs": [],
      "payable": false,
      "stateMutability": "nonpayable",
      "type": "function"
    }
  ],
  "bytecode": "0x608060405234801561001057600080fd5b50610573806100206000396000f3fe608060405234801561001057600080fd5b506004361061004c5760003560e01c806354155713146100515780635df741431461006f578063888e5d9e14610079578063f9df9851146100a9575b600080fd5b6100596100c7565b604051610066919061046a565b60405180910390f35b61007761012c565b005b610093600480360361008e91908101906103b9565b61030d565b6040516100a0919061044f565b60405180910390f35b6100b1610349565b6040516100be91906104a5565b60405180910390f35b6000600260003373ffffffffffffffffffffffffffffffffffffffff1673ffffffffffffffffffffffffffffffffffffffff16815260200190815260200160002060009054906101000a900460ff16156101245760019050610129565b600090505b90565b600260003373ffffffffffffffffffffffffffffffffffffffff1673ffffffffffffffffffffffffffffffffffffffff16815260200190815260200160002060009054906101000a900460ff16156101835761030b565b6001600260003373ffffffffffffffffffffffffffffffffffffffff1673ffffffffffffffffffffffffffffffffffffffff16815260200190815260200160002060006101000a81548160ff02191690831515021790555060013390806001815401808255809150509060018203906000526020600020016000909192909190916101000a81548173ffffffffffffffffffffffffffffffffffffffff021916908373ffffffffffffffffffffffffffffffffffffffff16021790555050610257600160005461034f90919063ffffffff16565b60008190555033600360003373ffffffffffffffffffffffffffffffffffffffff1673ffffffffffffffffffffffffffffffffffffffff16815260200190815260200160002060000160006101000a81548173ffffffffffffffffffffffffffffffffffffffff021916908373ffffffffffffffffffffffffffffffffffffffff1602179055507f292813b9c444d1e805bb3e342ff6631d3ef0b93de23db3f4462dedfca7ef8d9260405160405180910390a15b565b6001818154811061031a57fe5b906000526020600020016000915054906101000a900473ffffffffffffffffffffffffffffffffffffffff1681565b60005481565b60008082840190508381101561039a576040517f08c379a000000000000000000000000000000000000000000000000000000000815260040161039190610485565b60405180910390fd5b8091505092915050565b6000813590506103b381610519565b92915050565b6000602082840312156103cb57600080fd5b60006103d9848285016103a4565b91505092915050565b6103eb816104d1565b82525050565b6103fa816104e3565b82525050565b600061040d601b836104c0565b91507f536166654d6174683a206164646974696f6e206f766572666c6f7700000000006000830152602082019050919050565b6104498161050f565b82525050565b600060208201905061046460008301846103e2565b92915050565b600060208201905061047f60008301846103f1565b92915050565b6000602082019050818103600083015261049e81610400565b9050919050565b60006020820190506104ba6000830184610440565b92915050565b600082825260208201905092915050565b60006104dc826104ef565b9050919050565b60008115159050919050565b600073ffffffffffffffffffffffffffffffffffffffff82169050919050565b6000819050919050565b6105228161050f565b811461052d57600080fd5b5056fea365627a7a72315820fb4b3c2e0bd3fd6e3230f4b1d6598ce1a38ad4a6e1962acdf4ded835d4358f136c6578706572696d656e74616cf564736f6c63430005100040",
  "source": "pragma solidity ^0.5.0;\r\npragma experimental ABIEncoderV2;\r\n\r\nimport './SafeMath.sol';\r\n\r\ncontract Patron {\r\n\r\n    using SafeMath for uint;\r\n\r\n    // Total patrons on platform\r\n    uint public numPatrons;\r\n\r\n    // Mapping to keep track of new patrons\r\n    mapping (address => bool) alreadyRegisteredPatron;\r\n\r\n    // Mapping to get all the Creator ID's patron has subscribed to\r\n    mapping (address => address[]) Subscriptions;                                   // See implementation of add vs uint\r\n\r\n    // Event flagging a new patron\r\n    event NewPatron();\r\n    // Event for welcome back\r\n    // event WelcomeBackPatron();\r\n\r\n    modifier isPatronRegistered () {\r\n        require(alreadyRegisteredPatron[msg.sender], \"User not registered!\");\r\n        _;\r\n    }\r\n    \r\n    function isOldPatron () public view returns (bool) {\r\n        if (alreadyRegisteredPatron[msg.sender]) {\r\n            return true;\r\n        }\r\n        return false;\r\n    }\r\n    \r\n    // Function to create a new patron from public address and return success\r\n    function newPatronSignup () public {\r\n        if (alreadyRegisteredPatron[msg.sender]) {\r\n            return;\r\n        }\r\n        else {\r\n            alreadyRegisteredPatron[msg.sender] = true;\r\n            numPatrons = numPatrons.add(1);\r\n            emit NewPatron();\r\n        }\r\n    }\r\n\r\n    // Function to get total number of creators a patron has subscribed to\r\n    function getSubscriptionCount() public view isPatronRegistered returns (uint) {\r\n        return Subscriptions[msg.sender].length;\r\n    }\r\n\r\n    // Function to get all creators a patron has subscribed to\r\n    function getSubscriptions() public view isPatronRegistered returns (address[] memory) {\r\n        return Subscriptions[msg.sender];\r\n    }\r\n}\r\n\r\ncontract Creator {\r\n\r\n    using SafeMath for uint;\r\n\r\n    // Structure to store data of a creator\r\n    struct CreatorDatastore {\r\n        address owner;\r\n        string imageHash;\r\n        string contentHash;\r\n    }\r\n\r\n    // Total creators on platform\r\n    uint public numCreators;\r\n\r\n    // Get all creators for frontend\r\n    address[] public allCreators;\r\n\r\n    // Mapping to keep track of new creators\r\n    mapping (address => bool) alreadyRegisteredCreator;\r\n\r\n    // Mapping to store data of a creator\r\n    mapping (address => CreatorDatastore) CreatorData;\r\n\r\n    // Event flagging a new creator\r\n    event NewCreator();\r\n    // Event for welcome back\r\n    // event WelcomeBackCreator();\r\n\r\n    modifier isCreatorRegistered () {\r\n        require(alreadyRegisteredCreator[msg.sender], \"Creator not registered!\");\r\n        _;\r\n    }\r\n\r\n    function isOldCreator () public view returns (bool) {\r\n        if (alreadyRegisteredCreator[msg.sender]) {\r\n            return true;\r\n        }\r\n        return false;\r\n    }\r\n\r\n    // Function to create a new creator from public address and return success\r\n    function newCreatorSignup () public {\r\n        if (alreadyRegisteredCreator[msg.sender]) {\r\n            return;\r\n        }\r\n        else {\r\n            alreadyRegisteredCreator[msg.sender] = true;\r\n            allCreators.push(msg.sender);\r\n            numCreators = numCreators.add(1);\r\n            CreatorData[msg.sender].owner = msg.sender;\r\n            emit NewCreator();\r\n        }\r\n    }\r\n}",
  "sourcePath": "C:\\Users\\Shubham Bhardwaj\\Desktop\\ChainRunner\\pet-shop\\contracts\\EthreonBase.sol",
  "compiler": {
    "name": "solc",
    "version": "0.5.16+commit.9c3226ce.Emscripten.clang"
  },
  "schemaVersion": "3.2.0",
  "updatedAt": "2020-07-09T04:52:41.514Z",
  "devdoc": {
    "methods": {}
  },
  "userdoc": {
    "methods": {}
  }
}