{
  "contractName": "Ethreon",
  "abi": [
    {
      "anonymous": false,
      "inputs": [],
      "name": "AlreadySubscribed",
      "type": "event"
    },
    {
      "anonymous": false,
      "inputs": [],
      "name": "ContentAdded",
      "type": "event"
    },
    {
      "anonymous": false,
      "inputs": [],
      "name": "ImageAdded",
      "type": "event"
    },
    {
      "anonymous": false,
      "inputs": [],
      "name": "NewCreator",
      "type": "event"
    },
    {
      "anonymous": false,
      "inputs": [],
      "name": "NewPatron",
      "type": "event"
    },
    {
      "anonymous": false,
      "inputs": [
        {
          "indexed": false,
          "internalType": "address",
          "name": "_creator",
          "type": "address"
        }
      ],
      "name": "NewSubscription",
      "type": "event"
    },
    {
      "anonymous": false,
      "inputs": [],
      "name": "WelcomeBackCreator",
      "type": "event"
    },
    {
      "anonymous": false,
      "inputs": [],
      "name": "WelcomeBackPatron",
      "type": "event"
    },
    {
      "constant": true,
      "inputs": [
        {
          "internalType": "address",
          "name": "",
          "type": "address"
        }
      ],
      "name": "CreatorData",
      "outputs": [
        {
          "internalType": "address",
          "name": "owner",
          "type": "address"
        },
        {
          "internalType": "string",
          "name": "imageHash",
          "type": "string"
        },
        {
          "internalType": "string",
          "name": "contentHash",
          "type": "string"
        }
      ],
      "payable": false,
      "stateMutability": "view",
      "type": "function"
    },
    {
      "constant": true,
      "inputs": [
        {
          "internalType": "uint256",
          "name": "",
          "type": "uint256"
        }
      ],
      "name": "allCreators",
      "outputs": [
        {
          "internalType": "address",
          "name": "",
          "type": "address"
        }
      ],
      "payable": false,
      "stateMutability": "view",
      "type": "function"
    },
    {
      "constant": true,
      "inputs": [],
      "name": "getSubscriptionCount",
      "outputs": [
        {
          "internalType": "uint256",
          "name": "",
          "type": "uint256"
        }
      ],
      "payable": false,
      "stateMutability": "view",
      "type": "function"
    },
    {
      "constant": true,
      "inputs": [],
      "name": "getSubscriptions",
      "outputs": [
        {
          "internalType": "address[]",
          "name": "",
          "type": "address[]"
        }
      ],
      "payable": false,
      "stateMutability": "view",
      "type": "function"
    },
    {
      "constant": false,
      "inputs": [],
      "name": "newCreatorSignup",
      "outputs": [],
      "payable": false,
      "stateMutability": "nonpayable",
      "type": "function"
    },
    {
      "constant": false,
      "inputs": [],
      "name": "newPatronSignup",
      "outputs": [],
      "payable": false,
      "stateMutability": "nonpayable",
      "type": "function"
    },
    {
      "constant": true,
      "inputs": [],
      "name": "numCreators",
      "outputs": [
        {
          "internalType": "uint256",
          "name": "",
          "type": "uint256"
        }
      ],
      "payable": false,
      "stateMutability": "view",
      "type": "function"
    },
    {
      "constant": true,
      "inputs": [],
      "name": "numPatrons",
      "outputs": [
        {
          "internalType": "uint256",
          "name": "",
          "type": "uint256"
        }
      ],
      "payable": false,
      "stateMutability": "view",
      "type": "function"
    },
    {
      "constant": false,
      "inputs": [
        {
          "internalType": "address",
          "name": "_creator",
          "type": "address"
        }
      ],
      "name": "newSubscription",
      "outputs": [],
      "payable": false,
      "stateMutability": "nonpayable",
      "type": "function"
    },
    {
      "constant": false,
      "inputs": [
        {
          "internalType": "string",
          "name": "_imageHash",
          "type": "string"
        }
      ],
      "name": "addCreatorImage",
      "outputs": [],
      "payable": false,
      "stateMutability": "nonpayable",
      "type": "function"
    },
    {
      "constant": false,
      "inputs": [
        {
          "internalType": "string",
          "name": "_contentHash",
          "type": "string"
        }
      ],
      "name": "addCreatorContent",
      "outputs": [],
      "payable": false,
      "stateMutability": "nonpayable",
      "type": "function"
    },
    {
      "constant": true,
      "inputs": [
        {
          "internalType": "address",
          "name": "_creator",
          "type": "address"
        }
      ],
      "name": "getContent",
      "outputs": [
        {
          "internalType": "string",
          "name": "",
          "type": "string"
        }
      ],
      "payable": false,
      "stateMutability": "view",
      "type": "function"
    }
  ],
  "bytecode": "0x608060405234801561001057600080fd5b50611aa1806100206000396000f3fe608060405234801561001057600080fd5b50600436106100b45760003560e01c8063888e5d9e11610071578063888e5d9e1461014357806389b1349a14610173578063b30ab3491461018f578063eb049dc9146101bf578063f4a8482d146101db578063f9df98511461020d576100b4565b80632316dc5c146100b95780633b47a9ac146100d757806349f7e2ce146100f55780635df7414314610111578063664199701461011b5780636a9eac6e14610139575b600080fd5b6100c161022b565b6040516100ce91906118cd565b60405180910390f35b6100df610231565b6040516100ec91906117e9565b60405180910390f35b61010f600480360361010a91908101906114ca565b610388565b005b6101196104de565b005b6101236106eb565b60405161013091906118cd565b60405180910390f35b6101416107c1565b005b61015d6004803603610158919081019061150b565b6108e6565b60405161016a9190611789565b60405180910390f35b61018d600480360361018891908101906114ca565b610922565b005b6101a960048036036101a491908101906114a1565b610a78565b6040516101b6919061180b565b60405180910390f35b6101d960048036036101d491908101906114a1565b610dbb565b005b6101f560048036036101f091908101906114a1565b6111a9565b604051610204939291906117a4565b60405180910390f35b610215611323565b60405161022291906118cd565b60405180910390f35b60005481565b6060600160003373ffffffffffffffffffffffffffffffffffffffff1673ffffffffffffffffffffffffffffffffffffffff16815260200190815260200160002060009054906101000a900460ff166102bf576040517f08c379a00000000000000000000000000000000000000000000000000000000081526004016102b69061182d565b60405180910390fd5b600260003373ffffffffffffffffffffffffffffffffffffffff1673ffffffffffffffffffffffffffffffffffffffff16815260200190815260200160002080548060200260200160405190810160405280929190818152602001828054801561037e57602002820191906000526020600020905b8160009054906101000a900473ffffffffffffffffffffffffffffffffffffffff1673ffffffffffffffffffffffffffffffffffffffff1681526020019060010190808311610334575b5050505050905090565b600560003373ffffffffffffffffffffffffffffffffffffffff1673ffffffffffffffffffffffffffffffffffffffff16815260200190815260200160002060009054906101000a900460ff16610414576040517f08c379a000000000000000000000000000000000000000000000000000000000815260040161040b9061188d565b60405180910390fd5b6000815111610458576040517f08c379a000000000000000000000000000000000000000000000000000000000815260040161044f906118ad565b60405180910390fd5b80600660003373ffffffffffffffffffffffffffffffffffffffff1673ffffffffffffffffffffffffffffffffffffffff16815260200190815260200160002060020190805190602001906104ae92919061137e565b507f099cd507ce053de70a3a9ab29d62c2bcecd94b68c75716bbdbf6e8791ed02ef560405160405180910390a150565b600560003373ffffffffffffffffffffffffffffffffffffffff1673ffffffffffffffffffffffffffffffffffffffff16815260200190815260200160002060009054906101000a900460ff1615610561577fad569f5f5522837c649404dd673537aa865e803920dd7b1802f2a522bb0f9ad760405160405180910390a16106e9565b6001600560003373ffffffffffffffffffffffffffffffffffffffff1673ffffffffffffffffffffffffffffffffffffffff16815260200190815260200160002060006101000a81548160ff02191690831515021790555060043390806001815401808255809150509060018203906000526020600020016000909192909190916101000a81548173ffffffffffffffffffffffffffffffffffffffff021916908373ffffffffffffffffffffffffffffffffffffffff16021790555050610635600160035461132990919063ffffffff16565b60038190555033600660003373ffffffffffffffffffffffffffffffffffffffff1673ffffffffffffffffffffffffffffffffffffffff16815260200190815260200160002060000160006101000a81548173ffffffffffffffffffffffffffffffffffffffff021916908373ffffffffffffffffffffffffffffffffffffffff1602179055507f292813b9c444d1e805bb3e342ff6631d3ef0b93de23db3f4462dedfca7ef8d9260405160405180910390a15b565b6000600160003373ffffffffffffffffffffffffffffffffffffffff1673ffffffffffffffffffffffffffffffffffffffff16815260200190815260200160002060009054906101000a900460ff16610779576040517f08c379a00000000000000000000000000000000000000000000000000000000081526004016107709061182d565b60405180910390fd5b600260003373ffffffffffffffffffffffffffffffffffffffff1673ffffffffffffffffffffffffffffffffffffffff16815260200190815260200160002080549050905090565b600160003373ffffffffffffffffffffffffffffffffffffffff1673ffffffffffffffffffffffffffffffffffffffff16815260200190815260200160002060009054906101000a900460ff1615610844577f27fa8c9a0a68f2eac1e0efb2014ab68f2abe15c7c91c75bee02fa657c3ead0ce60405160405180910390a16108e4565b60018060003373ffffffffffffffffffffffffffffffffffffffff1673ffffffffffffffffffffffffffffffffffffffff16815260200190815260200160002060006101000a81548160ff0219169083151502179055506108b1600160005461132990919063ffffffff16565b6000819055507f4186843bf7674376f6b27b4cd58a19a7d3c5dd840a916a230a5621bbc65883be60405160405180910390a15b565b600481815481106108f357fe5b906000526020600020016000915054906101000a900473ffffffffffffffffffffffffffffffffffffffff1681565b600560003373ffffffffffffffffffffffffffffffffffffffff1673ffffffffffffffffffffffffffffffffffffffff16815260200190815260200160002060009054906101000a900460ff166109ae576040517f08c379a00000000000000000000000000000000000000000000000000000000081526004016109a59061188d565b60405180910390fd5b60008151116109f2576040517f08c379a00000000000000000000000000000000000000000000000000000000081526004016109e9906118ad565b60405180910390fd5b80600660003373ffffffffffffffffffffffffffffffffffffffff1673ffffffffffffffffffffffffffffffffffffffff1681526020019081526020016000206001019080519060200190610a4892919061137e565b507f943b07e3b59cf94b41d4a12b629be46611f5e27ff763cc03d58cdfdb3a739d4d60405160405180910390a150565b6060600160003373ffffffffffffffffffffffffffffffffffffffff1673ffffffffffffffffffffffffffffffffffffffff16815260200190815260200160002060009054906101000a900460ff16610b06576040517f08c379a0000000000000000000000000000000000000000000000000000000008152600401610afd9061182d565b60405180910390fd5b600560008373ffffffffffffffffffffffffffffffffffffffff1673ffffffffffffffffffffffffffffffffffffffff16815260200190815260200160002060009054906101000a900460ff16610b92576040517f08c379a0000000000000000000000000000000000000000000000000000000008152600401610b899061186d565b60405180910390fd5b6060600760008473ffffffffffffffffffffffffffffffffffffffff1673ffffffffffffffffffffffffffffffffffffffff168152602001908152602001600020805480602002602001604051908101604052809291908181526020018280548015610c5357602002820191906000526020600020905b8160009054906101000a900473ffffffffffffffffffffffffffffffffffffffff1673ffffffffffffffffffffffffffffffffffffffff1681526020019060010190808311610c09575b5050505050905060008090505b8151811015610da1573373ffffffffffffffffffffffffffffffffffffffff16828281518110610c8c57fe5b602002602001015173ffffffffffffffffffffffffffffffffffffffff161415610d9457600660008573ffffffffffffffffffffffffffffffffffffffff1673ffffffffffffffffffffffffffffffffffffffff1681526020019081526020016000206002018054600181600116156101000203166002900480601f016020809104026020016040519081016040528092919081815260200182805460018160011615610100020316600290048015610d865780601f10610d5b57610100808354040283529160200191610d86565b820191906000526020600020905b815481529060010190602001808311610d6957829003601f168201915b505050505092505050610db6565b8080600101915050610c60565b50604051806020016040528060008152509150505b919050565b600160003373ffffffffffffffffffffffffffffffffffffffff1673ffffffffffffffffffffffffffffffffffffffff16815260200190815260200160002060009054906101000a900460ff16610e47576040517f08c379a0000000000000000000000000000000000000000000000000000000008152600401610e3e9061182d565b60405180910390fd5b600560008273ffffffffffffffffffffffffffffffffffffffff1673ffffffffffffffffffffffffffffffffffffffff16815260200190815260200160002060009054906101000a900460ff16610ed3576040517f08c379a0000000000000000000000000000000000000000000000000000000008152600401610eca9061186d565b60405180910390fd5b600860003373ffffffffffffffffffffffffffffffffffffffff1673ffffffffffffffffffffffffffffffffffffffff16815260200190815260200160002060008273ffffffffffffffffffffffffffffffffffffffff1673ffffffffffffffffffffffffffffffffffffffff16815260200190815260200160002060009054906101000a900460ff1615610f93577f5fd8a1328cf54e260cc8a81e8482879cbb5cab38a3c5c7499ea7641172d7618f60405160405180910390a16111a6565b600760008273ffffffffffffffffffffffffffffffffffffffff1673ffffffffffffffffffffffffffffffffffffffff1681526020019081526020016000203390806001815401808255809150509060018203906000526020600020016000909192909190916101000a81548173ffffffffffffffffffffffffffffffffffffffff021916908373ffffffffffffffffffffffffffffffffffffffff16021790555050600260003373ffffffffffffffffffffffffffffffffffffffff1673ffffffffffffffffffffffffffffffffffffffff1681526020019081526020016000208190806001815401808255809150509060018203906000526020600020016000909192909190916101000a81548173ffffffffffffffffffffffffffffffffffffffff021916908373ffffffffffffffffffffffffffffffffffffffff160217905550506001600860003373ffffffffffffffffffffffffffffffffffffffff1673ffffffffffffffffffffffffffffffffffffffff16815260200190815260200160002060008373ffffffffffffffffffffffffffffffffffffffff1673ffffffffffffffffffffffffffffffffffffffff16815260200190815260200160002060006101000a81548160ff0219169083151502179055507f5bc7d13291cd02f7d213fdf7fa71028394f2b5d578f6e5baf2eb2e05dbb23f4a8160405161119d9190611789565b60405180910390a15b50565b60066020528060005260406000206000915090508060000160009054906101000a900473ffffffffffffffffffffffffffffffffffffffff1690806001018054600181600116156101000203166002900480601f01602080910402602001604051908101604052809291908181526020018280546001816001161561010002031660029004801561127b5780601f106112505761010080835404028352916020019161127b565b820191906000526020600020905b81548152906001019060200180831161125e57829003601f168201915b505050505090806002018054600181600116156101000203166002900480601f0160208091040260200160405190810160405280929190818152602001828054600181600116156101000203166002900480156113195780601f106112ee57610100808354040283529160200191611319565b820191906000526020600020905b8154815290600101906020018083116112fc57829003601f168201915b5050505050905083565b60035481565b600080828401905083811015611374576040517f08c379a000000000000000000000000000000000000000000000000000000000815260040161136b9061184d565b60405180910390fd5b8091505092915050565b828054600181600116156101000203166002900490600052602060002090601f016020900481019282601f106113bf57805160ff19168380011785556113ed565b828001600101855582156113ed579182015b828111156113ec5782518255916020019190600101906113d1565b5b5090506113fa91906113fe565b5090565b61142091905b8082111561141c576000816000905550600101611404565b5090565b90565b60008135905061143281611a30565b92915050565b600082601f83011261144957600080fd5b813561145c61145782611915565b6118e8565b9150808252602083016020830185838301111561147857600080fd5b6114838382846119dd565b50505092915050565b60008135905061149b81611a47565b92915050565b6000602082840312156114b357600080fd5b60006114c184828501611423565b91505092915050565b6000602082840312156114dc57600080fd5b600082013567ffffffffffffffff8111156114f657600080fd5b61150284828501611438565b91505092915050565b60006020828403121561151d57600080fd5b600061152b8482850161148c565b91505092915050565b6000611540838361154c565b60208301905092915050565b611555816119a1565b82525050565b611564816119a1565b82525050565b600061157582611951565b61157f818561197f565b935061158a83611941565b8060005b838110156115bb5781516115a28882611534565b97506115ad83611972565b92505060018101905061158e565b5085935050505092915050565b60006115d382611967565b6115dd8185611990565b93506115ed8185602086016119ec565b6115f681611a1f565b840191505092915050565b600061160c8261195c565b6116168185611990565b93506116268185602086016119ec565b61162f81611a1f565b840191505092915050565b6000611647601483611990565b91507f55736572206e6f742072656769737465726564210000000000000000000000006000830152602082019050919050565b6000611687601b83611990565b91507f536166654d6174683a206164646974696f6e206f766572666c6f7700000000006000830152602082019050919050565b60006116c7601983611990565b91507f4e6f74206120726567697374657265642063726561746f7221000000000000006000830152602082019050919050565b6000611707601783611990565b91507f43726561746f72206e6f742072656769737465726564210000000000000000006000830152602082019050919050565b6000611747601783611990565b91507f4e6f7420612076616c696420696d6167652068617368210000000000000000006000830152602082019050919050565b611783816119d3565b82525050565b600060208201905061179e600083018461155b565b92915050565b60006060820190506117b9600083018661155b565b81810360208301526117cb8185611601565b905081810360408301526117df8184611601565b9050949350505050565b60006020820190508181036000830152611803818461156a565b905092915050565b6000602082019050818103600083015261182581846115c8565b905092915050565b600060208201905081810360008301526118468161163a565b9050919050565b600060208201905081810360008301526118668161167a565b9050919050565b60006020820190508181036000830152611886816116ba565b9050919050565b600060208201905081810360008301526118a6816116fa565b9050919050565b600060208201905081810360008301526118c68161173a565b9050919050565b60006020820190506118e2600083018461177a565b92915050565b6000604051905081810181811067ffffffffffffffff8211171561190b57600080fd5b8060405250919050565b600067ffffffffffffffff82111561192c57600080fd5b601f19601f8301169050602081019050919050565b6000819050602082019050919050565b600081519050919050565b600081519050919050565b600081519050919050565b6000602082019050919050565b600082825260208201905092915050565b600082825260208201905092915050565b60006119ac826119b3565b9050919050565b600073ffffffffffffffffffffffffffffffffffffffff82169050919050565b6000819050919050565b82818337600083830152505050565b60005b83811015611a0a5780820151818401526020810190506119ef565b83811115611a19576000848401525b50505050565b6000601f19601f8301169050919050565b611a39816119a1565b8114611a4457600080fd5b50565b611a50816119d3565b8114611a5b57600080fd5b5056fea365627a7a72315820fae94a6a283bc2e7d0538f7e1d227b050c58ef253e0d0b4b0405f2118dffa03b6c6578706572696d656e74616cf564736f6c63430005100040",
  "source": "pragma solidity ^0.5.0;\r\npragma experimental ABIEncoderV2;\r\n\r\nimport './SafeMath.sol';\r\nimport './EthreonBase.sol';\r\n\r\ncontract Ethreon is Patron, Creator {\r\n\r\n    // Structure to store subscribers and their end date\r\n    // struct SubscribersData {\r\n    //     address patronAddress;\r\n    //     uint endSubscription;\r\n    // }\r\n\r\n    // Mapping to get all the patrons subscribed to creator\r\n    // mapping (address => SubscribersData[]) Subscribers;\r\n    mapping (address => address[]) Subscribers;\r\n    // Mappings to prevent double subscription\r\n    mapping(address => mapping(address => bool)) isCreatorSubscribed;       // For all patrons\r\n    // mapping(address => mapping(address => bool)) isUserSubscribed;          // For all creators\r\n\r\n    // Event flagging new subscription to highlight creator\r\n    event NewSubscription(address _creator);\r\n    // Event to flag already existing subscription\r\n    event AlreadySubscribed();\r\n    // Event flagging addition of creator image\r\n    event ImageAdded();\r\n    // Event flagging addition of content by creator\r\n    event ContentAdded();\r\n\r\n    // Function for patron to subscribe to new creator\r\n    function newSubscription(address _creator) public isPatronRegistered {\r\n        require(alreadyRegisteredCreator[_creator], \"Not a registered creator!\");\r\n        if (isCreatorSubscribed[msg.sender][_creator]) {\r\n            emit AlreadySubscribed();\r\n        }\r\n        else {\r\n            Subscribers[_creator].push(msg.sender);             //SubscribersData(msg.sender, now + 30 days));\r\n            Subscriptions[msg.sender].push(_creator);\r\n            isCreatorSubscribed[msg.sender][_creator] = true;\r\n            emit NewSubscription(_creator);\r\n        }\r\n    }\r\n\r\n    // Function to add image for the creator\r\n    function addCreatorImage(string memory _imageHash) public isCreatorRegistered {\r\n        require(bytes(_imageHash).length > 0, \"Not a valid image hash!\");\r\n        CreatorData[msg.sender].imageHash = _imageHash;\r\n        emit ImageAdded();\r\n    }\r\n\r\n    // Function to add content by the creator\r\n    function addCreatorContent(string memory _contentHash) public isCreatorRegistered {\r\n        require(bytes(_contentHash).length > 0, \"Not a valid image hash!\");\r\n        CreatorData[msg.sender].contentHash = _contentHash;\r\n        emit ContentAdded();\r\n    }\r\n\r\n    // Function to return string of content hash to registered patron\r\n    function getContent(address _creator) public view isPatronRegistered returns (string memory ) {\r\n        require(alreadyRegisteredCreator[_creator], \"Not a registered creator!\");\r\n        // require(Subscribers[_creator].isValue, \"No subscribers of this creator yet!\");\r\n        address[] memory users = Subscribers[_creator];\r\n        for (uint i = 0; i < users.length; i++) {\r\n            if (users[i] == msg.sender) {\r\n                return CreatorData[_creator].contentHash;\r\n                //if (users[i].endSubscription > now) {\r\n                //    return CreatorData[_creator].contentHash;\r\n                //}\r\n            }\r\n        }\r\n        return \"\";                // Should never reach here ideally\r\n    }\r\n}",
  "sourcePath": "C:\\Users\\Shubham Bhardwaj\\Desktop\\ChainRunner\\meme_of_the_day\\src\\contracts\\Ethreon.sol",
  "compiler": {
    "name": "solc",
    "version": "0.5.16+commit.9c3226ce.Emscripten.clang"
  },
  "schemaVersion": "3.2.0",
  "updatedAt": "2020-06-28T10:14:10.861Z",
  "networkType": "ethereum",
  "devdoc": {
    "methods": {}
  },
  "userdoc": {
    "methods": {}
  }
}