{
  "contractName": "Ethreon",
  "abi": [
    {
      "anonymous": false,
      "inputs": [],
      "name": "AlreadySubscribed",
      "type": "event"
    },
    {
      "anonymous": false,
      "inputs": [],
      "name": "ContentAdded",
      "type": "event"
    },
    {
      "anonymous": false,
      "inputs": [],
      "name": "ImageAdded",
      "type": "event"
    },
    {
      "anonymous": false,
      "inputs": [],
      "name": "NewCreator",
      "type": "event"
    },
    {
      "anonymous": false,
      "inputs": [],
      "name": "NewPatron",
      "type": "event"
    },
    {
      "anonymous": false,
      "inputs": [
        {
          "indexed": false,
          "internalType": "address",
          "name": "_creator",
          "type": "address"
        }
      ],
      "name": "NewSubscription",
      "type": "event"
    },
    {
      "constant": true,
      "inputs": [
        {
          "internalType": "uint256",
          "name": "",
          "type": "uint256"
        }
      ],
      "name": "allCreators",
      "outputs": [
        {
          "internalType": "address",
          "name": "",
          "type": "address"
        }
      ],
      "payable": false,
      "stateMutability": "view",
      "type": "function"
    },
    {
      "constant": true,
      "inputs": [],
      "name": "getSubscriptionCount",
      "outputs": [
        {
          "internalType": "uint256",
          "name": "",
          "type": "uint256"
        }
      ],
      "payable": false,
      "stateMutability": "view",
      "type": "function"
    },
    {
      "constant": true,
      "inputs": [],
      "name": "getSubscriptions",
      "outputs": [
        {
          "internalType": "address[]",
          "name": "",
          "type": "address[]"
        }
      ],
      "payable": false,
      "stateMutability": "view",
      "type": "function"
    },
    {
      "constant": true,
      "inputs": [],
      "name": "isOldCreator",
      "outputs": [
        {
          "internalType": "bool",
          "name": "",
          "type": "bool"
        }
      ],
      "payable": false,
      "stateMutability": "view",
      "type": "function"
    },
    {
      "constant": true,
      "inputs": [],
      "name": "isOldPatron",
      "outputs": [
        {
          "internalType": "bool",
          "name": "",
          "type": "bool"
        }
      ],
      "payable": false,
      "stateMutability": "view",
      "type": "function"
    },
    {
      "constant": false,
      "inputs": [],
      "name": "newCreatorSignup",
      "outputs": [],
      "payable": false,
      "stateMutability": "nonpayable",
      "type": "function"
    },
    {
      "constant": false,
      "inputs": [],
      "name": "newPatronSignup",
      "outputs": [],
      "payable": false,
      "stateMutability": "nonpayable",
      "type": "function"
    },
    {
      "constant": true,
      "inputs": [],
      "name": "numCreators",
      "outputs": [
        {
          "internalType": "uint256",
          "name": "",
          "type": "uint256"
        }
      ],
      "payable": false,
      "stateMutability": "view",
      "type": "function"
    },
    {
      "constant": true,
      "inputs": [],
      "name": "numPatrons",
      "outputs": [
        {
          "internalType": "uint256",
          "name": "",
          "type": "uint256"
        }
      ],
      "payable": false,
      "stateMutability": "view",
      "type": "function"
    },
    {
      "constant": true,
      "inputs": [
        {
          "internalType": "address",
          "name": "_creator",
          "type": "address"
        }
      ],
      "name": "isSubscribedTo",
      "outputs": [
        {
          "internalType": "bool",
          "name": "",
          "type": "bool"
        }
      ],
      "payable": false,
      "stateMutability": "view",
      "type": "function"
    },
    {
      "constant": false,
      "inputs": [
        {
          "internalType": "address",
          "name": "_creator",
          "type": "address"
        }
      ],
      "name": "newSubscription",
      "outputs": [],
      "payable": true,
      "stateMutability": "payable",
      "type": "function"
    },
    {
      "constant": false,
      "inputs": [
        {
          "internalType": "string",
          "name": "_imageHash",
          "type": "string"
        }
      ],
      "name": "addCreatorImage",
      "outputs": [],
      "payable": false,
      "stateMutability": "nonpayable",
      "type": "function"
    },
    {
      "constant": false,
      "inputs": [
        {
          "internalType": "string",
          "name": "_contentHash",
          "type": "string"
        }
      ],
      "name": "addCreatorContent",
      "outputs": [],
      "payable": false,
      "stateMutability": "nonpayable",
      "type": "function"
    },
    {
      "constant": true,
      "inputs": [
        {
          "internalType": "address",
          "name": "_creator",
          "type": "address"
        }
      ],
      "name": "getCreatorData",
      "outputs": [
        {
          "internalType": "string",
          "name": "",
          "type": "string"
        },
        {
          "internalType": "string",
          "name": "",
          "type": "string"
        }
      ],
      "payable": false,
      "stateMutability": "view",
      "type": "function"
    }
  ],
  "bytecode": "0x608060405234801561001057600080fd5b50611d22806100206000396000f3fe6080604052600436106100dd5760003560e01c8063664199701161007f578063888e5d9e11610059578063888e5d9e1461028b57806389b1349a146102c8578063eb049dc9146102f1578063f9df98511461030d576100dd565b8063664199701461021e5780636a9eac6e14610249578063798e2b1514610260576100dd565b80633b47a9ac116100bb5780633b47a9ac1461018857806349f7e2ce146101b357806354155713146101dc5780635df7414314610207576100dd565b80630d64e697146100e25780631e6d005d146101205780632316dc5c1461015d575b600080fd5b3480156100ee57600080fd5b5061010960048036036101049190810190611760565b610338565b604051610117929190611a76565b60405180910390f35b34801561012c57600080fd5b5061014760048036036101429190810190611760565b610771565b6040516101549190611a5b565b60405180910390f35b34801561016957600080fd5b506101726108a1565b60405161017f9190611b4d565b60405180910390f35b34801561019457600080fd5b5061019d6108a7565b6040516101aa9190611a39565b60405180910390f35b3480156101bf57600080fd5b506101da60048036036101d59190810190611789565b6109fe565b005b3480156101e857600080fd5b506101f1610b54565b6040516101fe9190611a5b565b60405180910390f35b34801561021357600080fd5b5061021c610bb9565b005b34801561022a57600080fd5b50610233610d9a565b6040516102409190611b4d565b60405180910390f35b34801561025557600080fd5b5061025e610e70565b005b34801561026c57600080fd5b50610275610f69565b6040516102829190611a5b565b60405180910390f35b34801561029757600080fd5b506102b260048036036102ad91908101906117ca565b610fce565b6040516102bf9190611a1e565b60405180910390f35b3480156102d457600080fd5b506102ef60048036036102ea9190810190611789565b61100a565b005b61030b60048036036103069190810190611760565b611160565b005b34801561031957600080fd5b506103226115e2565b60405161032f9190611b4d565b60405180910390f35b606080600160003373ffffffffffffffffffffffffffffffffffffffff1673ffffffffffffffffffffffffffffffffffffffff16815260200190815260200160002060009054906101000a900460ff166103c7576040517f08c379a00000000000000000000000000000000000000000000000000000000081526004016103be90611aad565b60405180910390fd5b600560008473ffffffffffffffffffffffffffffffffffffffff1673ffffffffffffffffffffffffffffffffffffffff16815260200190815260200160002060009054906101000a900460ff16610453576040517f08c379a000000000000000000000000000000000000000000000000000000000815260040161044a90611aed565b60405180910390fd5b6060600760008573ffffffffffffffffffffffffffffffffffffffff1673ffffffffffffffffffffffffffffffffffffffff16815260200190815260200160002080548060200260200160405190810160405280929190818152602001828054801561051457602002820191906000526020600020905b8160009054906101000a900473ffffffffffffffffffffffffffffffffffffffff1673ffffffffffffffffffffffffffffffffffffffff16815260200190600101908083116104ca575b5050505050905060008090505b8151811015610745573373ffffffffffffffffffffffffffffffffffffffff1682828151811061054d57fe5b602002602001015173ffffffffffffffffffffffffffffffffffffffff16141561073857600660008673ffffffffffffffffffffffffffffffffffffffff1673ffffffffffffffffffffffffffffffffffffffff168152602001908152602001600020600101600660008773ffffffffffffffffffffffffffffffffffffffff1673ffffffffffffffffffffffffffffffffffffffff168152602001908152602001600020600201818054600181600116156101000203166002900480601f01602080910402602001604051908101604052809291908181526020018280546001816001161561010002031660029004801561068a5780601f1061065f5761010080835404028352916020019161068a565b820191906000526020600020905b81548152906001019060200180831161066d57829003601f168201915b50505050509150808054600181600116156101000203166002900480601f0160208091040260200160405190810160405280929190818152602001828054600181600116156101000203166002900480156107265780601f106106fb57610100808354040283529160200191610726565b820191906000526020600020905b81548152906001019060200180831161070957829003601f168201915b5050505050905093509350505061076c565b8080600101915050610521565b50604051806020016040528060008152506040518060200160405280600081525092509250505b915091565b6000600160003373ffffffffffffffffffffffffffffffffffffffff1673ffffffffffffffffffffffffffffffffffffffff16815260200190815260200160002060009054906101000a900460ff166107ff576040517f08c379a00000000000000000000000000000000000000000000000000000000081526004016107f690611aad565b60405180910390fd5b600860003373ffffffffffffffffffffffffffffffffffffffff1673ffffffffffffffffffffffffffffffffffffffff16815260200190815260200160002060008373ffffffffffffffffffffffffffffffffffffffff1673ffffffffffffffffffffffffffffffffffffffff16815260200190815260200160002060009054906101000a900460ff1615610897576001905061089c565b600090505b919050565b60005481565b6060600160003373ffffffffffffffffffffffffffffffffffffffff1673ffffffffffffffffffffffffffffffffffffffff16815260200190815260200160002060009054906101000a900460ff16610935576040517f08c379a000000000000000000000000000000000000000000000000000000000815260040161092c90611aad565b60405180910390fd5b600260003373ffffffffffffffffffffffffffffffffffffffff1673ffffffffffffffffffffffffffffffffffffffff1681526020019081526020016000208054806020026020016040519081016040528092919081815260200182805480156109f457602002820191906000526020600020905b8160009054906101000a900473ffffffffffffffffffffffffffffffffffffffff1673ffffffffffffffffffffffffffffffffffffffff16815260200190600101908083116109aa575b5050505050905090565b600560003373ffffffffffffffffffffffffffffffffffffffff1673ffffffffffffffffffffffffffffffffffffffff16815260200190815260200160002060009054906101000a900460ff16610a8a576040517f08c379a0000000000000000000000000000000000000000000000000000000008152600401610a8190611b0d565b60405180910390fd5b6000815111610ace576040517f08c379a0000000000000000000000000000000000000000000000000000000008152600401610ac590611b2d565b60405180910390fd5b80600660003373ffffffffffffffffffffffffffffffffffffffff1673ffffffffffffffffffffffffffffffffffffffff1681526020019081526020016000206002019080519060200190610b2492919061163d565b507f099cd507ce053de70a3a9ab29d62c2bcecd94b68c75716bbdbf6e8791ed02ef560405160405180910390a150565b6000600560003373ffffffffffffffffffffffffffffffffffffffff1673ffffffffffffffffffffffffffffffffffffffff16815260200190815260200160002060009054906101000a900460ff1615610bb15760019050610bb6565b600090505b90565b600560003373ffffffffffffffffffffffffffffffffffffffff1673ffffffffffffffffffffffffffffffffffffffff16815260200190815260200160002060009054906101000a900460ff1615610c1057610d98565b6001600560003373ffffffffffffffffffffffffffffffffffffffff1673ffffffffffffffffffffffffffffffffffffffff16815260200190815260200160002060006101000a81548160ff02191690831515021790555060043390806001815401808255809150509060018203906000526020600020016000909192909190916101000a81548173ffffffffffffffffffffffffffffffffffffffff021916908373ffffffffffffffffffffffffffffffffffffffff16021790555050610ce460016003546115e890919063ffffffff16565b60038190555033600660003373ffffffffffffffffffffffffffffffffffffffff1673ffffffffffffffffffffffffffffffffffffffff16815260200190815260200160002060000160006101000a81548173ffffffffffffffffffffffffffffffffffffffff021916908373ffffffffffffffffffffffffffffffffffffffff1602179055507f292813b9c444d1e805bb3e342ff6631d3ef0b93de23db3f4462dedfca7ef8d9260405160405180910390a15b565b6000600160003373ffffffffffffffffffffffffffffffffffffffff1673ffffffffffffffffffffffffffffffffffffffff16815260200190815260200160002060009054906101000a900460ff16610e28576040517f08c379a0000000000000000000000000000000000000000000000000000000008152600401610e1f90611aad565b60405180910390fd5b600260003373ffffffffffffffffffffffffffffffffffffffff1673ffffffffffffffffffffffffffffffffffffffff16815260200190815260200160002080549050905090565b600160003373ffffffffffffffffffffffffffffffffffffffff1673ffffffffffffffffffffffffffffffffffffffff16815260200190815260200160002060009054906101000a900460ff1615610ec757610f67565b60018060003373ffffffffffffffffffffffffffffffffffffffff1673ffffffffffffffffffffffffffffffffffffffff16815260200190815260200160002060006101000a81548160ff021916908315150217905550610f3460016000546115e890919063ffffffff16565b6000819055507f4186843bf7674376f6b27b4cd58a19a7d3c5dd840a916a230a5621bbc65883be60405160405180910390a15b565b6000600160003373ffffffffffffffffffffffffffffffffffffffff1673ffffffffffffffffffffffffffffffffffffffff16815260200190815260200160002060009054906101000a900460ff1615610fc65760019050610fcb565b600090505b90565b60048181548110610fdb57fe5b906000526020600020016000915054906101000a900473ffffffffffffffffffffffffffffffffffffffff1681565b600560003373ffffffffffffffffffffffffffffffffffffffff1673ffffffffffffffffffffffffffffffffffffffff16815260200190815260200160002060009054906101000a900460ff16611096576040517f08c379a000000000000000000000000000000000000000000000000000000000815260040161108d90611b0d565b60405180910390fd5b60008151116110da576040517f08c379a00000000000000000000000000000000000000000000000000000000081526004016110d190611b2d565b60405180910390fd5b80600660003373ffffffffffffffffffffffffffffffffffffffff1673ffffffffffffffffffffffffffffffffffffffff168152602001908152602001600020600101908051906020019061113092919061163d565b507f943b07e3b59cf94b41d4a12b629be46611f5e27ff763cc03d58cdfdb3a739d4d60405160405180910390a150565b600160003373ffffffffffffffffffffffffffffffffffffffff1673ffffffffffffffffffffffffffffffffffffffff16815260200190815260200160002060009054906101000a900460ff166111ec576040517f08c379a00000000000000000000000000000000000000000000000000000000081526004016111e390611aad565b60405180910390fd5b600560008273ffffffffffffffffffffffffffffffffffffffff1673ffffffffffffffffffffffffffffffffffffffff16815260200190815260200160002060009054906101000a900460ff16611278576040517f08c379a000000000000000000000000000000000000000000000000000000000815260040161126f90611aed565b60405180910390fd5b600860003373ffffffffffffffffffffffffffffffffffffffff1673ffffffffffffffffffffffffffffffffffffffff16815260200190815260200160002060008273ffffffffffffffffffffffffffffffffffffffff1673ffffffffffffffffffffffffffffffffffffffff16815260200190815260200160002060009054906101000a900460ff161561137f573373ffffffffffffffffffffffffffffffffffffffff166108fc349081150290604051600060405180830381858888f1935050505015801561134d573d6000803e3d6000fd5b507f5fd8a1328cf54e260cc8a81e8482879cbb5cab38a3c5c7499ea7641172d7618f60405160405180910390a16115df565b600760008273ffffffffffffffffffffffffffffffffffffffff1673ffffffffffffffffffffffffffffffffffffffff1681526020019081526020016000203390806001815401808255809150509060018203906000526020600020016000909192909190916101000a81548173ffffffffffffffffffffffffffffffffffffffff021916908373ffffffffffffffffffffffffffffffffffffffff16021790555050600260003373ffffffffffffffffffffffffffffffffffffffff1673ffffffffffffffffffffffffffffffffffffffff1681526020019081526020016000208190806001815401808255809150509060018203906000526020600020016000909192909190916101000a81548173ffffffffffffffffffffffffffffffffffffffff021916908373ffffffffffffffffffffffffffffffffffffffff160217905550506001600860003373ffffffffffffffffffffffffffffffffffffffff1673ffffffffffffffffffffffffffffffffffffffff16815260200190815260200160002060008373ffffffffffffffffffffffffffffffffffffffff1673ffffffffffffffffffffffffffffffffffffffff16815260200190815260200160002060006101000a81548160ff02191690831515021790555060008190508073ffffffffffffffffffffffffffffffffffffffff166108fc349081150290604051600060405180830381858888f193505050501580156115a5573d6000803e3d6000fd5b507f5bc7d13291cd02f7d213fdf7fa71028394f2b5d578f6e5baf2eb2e05dbb23f4a826040516115d59190611a1e565b60405180910390a1505b50565b60035481565b600080828401905083811015611633576040517f08c379a000000000000000000000000000000000000000000000000000000000815260040161162a90611acd565b60405180910390fd5b8091505092915050565b828054600181600116156101000203166002900490600052602060002090601f016020900481019282601f1061167e57805160ff19168380011785556116ac565b828001600101855582156116ac579182015b828111156116ab578251825591602001919060010190611690565b5b5090506116b991906116bd565b5090565b6116df91905b808211156116db5760008160009055506001016116c3565b5090565b90565b6000813590506116f181611cb1565b92915050565b600082601f83011261170857600080fd5b813561171b61171682611b95565b611b68565b9150808252602083016020830185838301111561173757600080fd5b611742838284611c5e565b50505092915050565b60008135905061175a81611cc8565b92915050565b60006020828403121561177257600080fd5b6000611780848285016116e2565b91505092915050565b60006020828403121561179b57600080fd5b600082013567ffffffffffffffff8111156117b557600080fd5b6117c1848285016116f7565b91505092915050565b6000602082840312156117dc57600080fd5b60006117ea8482850161174b565b91505092915050565b60006117ff838361180b565b60208301905092915050565b61181481611c16565b82525050565b61182381611c16565b82525050565b600061183482611bd1565b61183e8185611bf4565b935061184983611bc1565b8060005b8381101561187a57815161186188826117f3565b975061186c83611be7565b92505060018101905061184d565b5085935050505092915050565b61189081611c28565b82525050565b60006118a182611bdc565b6118ab8185611c05565b93506118bb818560208601611c6d565b6118c481611ca0565b840191505092915050565b60006118dc601483611c05565b91507f55736572206e6f742072656769737465726564210000000000000000000000006000830152602082019050919050565b600061191c601b83611c05565b91507f536166654d6174683a206164646974696f6e206f766572666c6f7700000000006000830152602082019050919050565b600061195c601983611c05565b91507f4e6f74206120726567697374657265642063726561746f7221000000000000006000830152602082019050919050565b600061199c601783611c05565b91507f43726561746f72206e6f742072656769737465726564210000000000000000006000830152602082019050919050565b60006119dc601783611c05565b91507f4e6f7420612076616c696420696d6167652068617368210000000000000000006000830152602082019050919050565b611a1881611c54565b82525050565b6000602082019050611a33600083018461181a565b92915050565b60006020820190508181036000830152611a538184611829565b905092915050565b6000602082019050611a706000830184611887565b92915050565b60006040820190508181036000830152611a908185611896565b90508181036020830152611aa48184611896565b90509392505050565b60006020820190508181036000830152611ac6816118cf565b9050919050565b60006020820190508181036000830152611ae68161190f565b9050919050565b60006020820190508181036000830152611b068161194f565b9050919050565b60006020820190508181036000830152611b268161198f565b9050919050565b60006020820190508181036000830152611b46816119cf565b9050919050565b6000602082019050611b626000830184611a0f565b92915050565b6000604051905081810181811067ffffffffffffffff82111715611b8b57600080fd5b8060405250919050565b600067ffffffffffffffff821115611bac57600080fd5b601f19601f8301169050602081019050919050565b6000819050602082019050919050565b600081519050919050565b600081519050919050565b6000602082019050919050565b600082825260208201905092915050565b600082825260208201905092915050565b6000611c2182611c34565b9050919050565b60008115159050919050565b600073ffffffffffffffffffffffffffffffffffffffff82169050919050565b6000819050919050565b82818337600083830152505050565b60005b83811015611c8b578082015181840152602081019050611c70565b83811115611c9a576000848401525b50505050565b6000601f19601f8301169050919050565b611cba81611c16565b8114611cc557600080fd5b50565b611cd181611c54565b8114611cdc57600080fd5b5056fea365627a7a72315820321fac420c17b5fa7ce5f85234b2f6be4d3f3df42cb9e166a857f86f8774011c6c6578706572696d656e74616cf564736f6c63430005100040",
  "source": "pragma solidity ^0.5.0;\r\npragma experimental ABIEncoderV2;\r\n\r\n// import './SafeMath.sol';\r\nimport './EthreonBase.sol';\r\n\r\ncontract Ethreon is Patron, Creator {\r\n\r\n    // Structure to store subscribers and their end date\r\n    // struct SubscribersData {\r\n    //     address patronAddress;\r\n    //     uint endSubscription;\r\n    // }\r\n\r\n    // Mapping to get all the patrons subscribed to creator\r\n    // mapping (address => SubscribersData[]) Subscribers;\r\n    mapping (address => address[]) Subscribers;\r\n    // Mappings to prevent double subscription\r\n    mapping(address => mapping(address => bool)) isCreatorSubscribed;       // For all patrons\r\n    // mapping(address => mapping(address => bool)) isUserSubscribed;          // For all creators\r\n\r\n    // Event flagging new subscription to highlight creator\r\n    event NewSubscription(address _creator);\r\n    // Event to flag already existing subscription\r\n    event AlreadySubscribed();\r\n    // Event flagging addition of creator image\r\n    event ImageAdded();\r\n    // Event flagging addition of content by creator\r\n    event ContentAdded();\r\n\r\n    function isSubscribedTo(address _creator) public view isPatronRegistered returns (bool) {\r\n        if (isCreatorSubscribed[msg.sender][_creator]) {\r\n            return true;\r\n        }\r\n        return false;\r\n    }\r\n\r\n    // Function for patron to subscribe to new creator\r\n    function newSubscription(address _creator) public isPatronRegistered payable {\r\n        require(alreadyRegisteredCreator[_creator], \"Not a registered creator!\");\r\n        if (isCreatorSubscribed[msg.sender][_creator]) {\r\n            msg.sender.transfer(msg.value);\r\n            emit AlreadySubscribed();\r\n        }\r\n        else {\r\n            Subscribers[_creator].push(msg.sender);             //SubscribersData(msg.sender, now + 30 days));\r\n            Subscriptions[msg.sender].push(_creator);\r\n            isCreatorSubscribed[msg.sender][_creator] = true;\r\n            address payable creator = address(uint160(_creator));\r\n            creator.transfer(msg.value);\r\n            emit NewSubscription(_creator);\r\n        }\r\n    }\r\n\r\n    // Function to add image for the creator\r\n    function addCreatorImage(string memory _imageHash) public isCreatorRegistered {\r\n        require(bytes(_imageHash).length > 0, \"Not a valid image hash!\");\r\n        CreatorData[msg.sender].imageHash = _imageHash;\r\n        emit ImageAdded();\r\n    }\r\n\r\n    // Function to add content by the creator\r\n    function addCreatorContent(string memory _contentHash) public isCreatorRegistered {\r\n        require(bytes(_contentHash).length > 0, \"Not a valid image hash!\");\r\n        CreatorData[msg.sender].contentHash = _contentHash;\r\n        emit ContentAdded();\r\n    }\r\n\r\n    // Function to return string of content hash to registered patron\r\n    function getCreatorData(address _creator) public view isPatronRegistered returns (string memory, string memory ) {\r\n        require(alreadyRegisteredCreator[_creator], \"Not a registered creator!\");\r\n        // require(Subscribers[_creator].isValue, \"No subscribers of this creator yet!\");\r\n        address[] memory users = Subscribers[_creator];\r\n        for (uint i = 0; i < users.length; i++) {\r\n            if (users[i] == msg.sender) {\r\n                return (CreatorData[_creator].imageHash, CreatorData[_creator].contentHash);\r\n                //if (users[i].endSubscription > now) {\r\n                //    return CreatorData[_creator].contentHash;\r\n                //}\r\n            }\r\n        }\r\n        return (\"\", \"\");                // Should never reach here ideally\r\n    }\r\n}",
  "sourcePath": "C:\\Users\\Shubham Bhardwaj\\Desktop\\ChainRunner\\pet-shop\\contracts\\Ethreon.sol",
  "compiler": {
    "name": "solc",
    "version": "0.5.16+commit.9c3226ce.Emscripten.clang"
  },
  "schemaVersion": "3.2.0",
  "updatedAt": "2020-07-09T04:53:58.901Z",
  "networkType": "ethereum",
  "devdoc": {
    "methods": {}
  },
  "userdoc": {
    "methods": {}
  }
}